:1000000063C07DC07CC07BC07AC079C078C05BC152
:1000100076C075C074C092C2FCC271C070C06FC09F
:100020006EC06DC06CC06BC06AC069C068C067C07C
:1000300066C065C01DC72BC741C757C769C77BC707
:1000400095C7A3C7BBC7D5C70000000001000100CA
:100050000100020002000200020002000200030090
:100060000300030003000400040004000500050071
:100070000600060007000800080009000A000B003F
:100080000C000D000E000F001100120014001600ED
:1000900018001A001C001F002200250028002C0058
:1000A0003000340039003E0044004A00510059003D
:1000B00061006A0074007E008A009600A400B3000C
:1000C000C400D600EA00FF0011241FBECFEFD4E029
:1000D000DEBFCDBF11E0A0E0B1E0E6E1F4E102C097
:1000E00005900D92A633B107D9F711E0A6E3B1E070
:1000F00001C01D92A13AB107E1F7DAD28AC980CFD7
:10010000AF92BF92CF92DF92EF92FF920F931F9325
:10011000CF93DF93EC015A01A901680182E0CD3F42
:10012000D8071CF0C0E0D0E003C0CF3FD1051CF5DC
:100130008AEA90E08C1B9D0B869F8001879F100DA3
:10014000969F100D11240058154D000F012F001F10
:10015000110BC555D040C69FD001C79FB00DD69F8B
:10016000B00D1124A058B54DAA0FAB2FAA1FBB0B81
:100170008BEA9FEF52C0A1E0CE3FDA0754F58BEA3D
:100180009FEF689F8001699F100D789F100D1124CB
:100190000058154D000F012F001F110B89EA91E047
:1001A0008C1B9D0B869FD001879FB00D969FB00D35
:1001B0001124A058B54DAA0FAB2FAA1FBB0BC455D5
:1001C000D140C69FF001C79FF00DD69FF00D1124BE
:1001D0002BC0C355D240C69F8001C79F100DD69F2C
:1001E000100D1124CD5ADD4F0058154D000F012F71
:1001F000001F110B8BEA9FEF689FD001699FB00D24
:10020000789FB00D1124A058B54DAA0FAB2FAA1F8F
:10021000BB0B88EA92E08C1B9D0B869FF001879FA9
:10022000F00D969FF00D1124E058F54DEE0FEF2FD5
:10023000EE1FFF0B95012F5F3F4F029FC001039FF1
:10024000900D129F900D1124EA0198831982A29FAC
:10025000C001A39F900DB29F900D1124D6019C93D5
:1002600011961C92E29FC001E39F900DF29F900DAA
:100270001124E70198831982DF91CF911F910F918B
:10028000FF90EF90DF90CF90BF90AF900895319B9B
:1002900002C093E001C090E0329B02C081E0982749
:1002A000909337011092860182E08093B00084E041
:1002B0008093B1008CE78093B300809170008260DE
:1002C0008093700008951F920F920FB60F92112421
:1002D0002F938F939F93319B02C023E001C020E0B6
:1002E000329B02C081E0282790913701921B90FF3A
:1002F00009C0209337018091860181509270890F47
:10030000809386019F918F912F910F900FBE0F9038
:100310001F901895F8948091860110928601789428
:100320000895F89480918601982F9170909386019A
:10033000789485950895F89480918601982F93700C
:100340009093860178948595859508950F931F93D2
:10035000CF93DF9321E031E005C0FA016083788319
:100360002150B9F0822F90E0AC01495C5E4FFA0158
:100370007081EC01C85CDE4F6881A72FB0E0A65801
:10038000BE4FE62FF0E0E658FE4F9C918081891722
:1003900020F33F5F232F3C3029F780E090E0E0918D
:1003A0000001F0910101E80FF91F1082E0910201B4
:1003B000F0910301E80FF91F1082E0910401F09120
:1003C0000501E80FF91F108201968D30910539F76C
:1003D000C8E3D1E060E001E010E08881A82FB0E040
:1003E000FD01E658FE4F80818823B9F0FD01EE0F34
:1003F000FF1FE85EFE4F0190F081E02D0190F0813B
:10040000E02DA45FBE4F98010C9002C0220F331F55
:100410000A94E2F78081822B80838881A82FB0E044
:10042000FD01E658FE4F80818F3F59F1262F30E0C5
:10043000FD01EE0FFF1FE85EFE4F0190F081E02D01
:100440002F5F3F4F0190F081E02DE20FF31F21500D
:100450003040A45FBE4FA8010C9002C0440F551F4E
:100460000A94E2F78081842B8083A0910401B091EB
:100470000501A20FB31FE881F0E0E658FE4F80812E
:100480008C93A881B0E0A658BE4FE981F0E0E65811
:10049000FE4F9C91808198136F5F2196F1E0C434E8
:1004A000DF0709F09ACF10926C0180916C018823CC
:1004B000E1F3F8942091000130910101809106014F
:1004C00090910701909301018093000130930701FF
:1004D00020930601209102013091030180910801CF
:1004E00090910901909303018093020130930901D7
:1004F00020930801209104013091050180910A01A7
:1005000090910B01909305018093040130930B01AE
:1005100020930A017894DF91CF911F910F91089554
:1005200020E030E040ED57E005C0FA013197F1F7E7
:100530002F5F3F4F28173907C0F308951F920F927E
:100540000FB60F9211242F933F938F939F93EF93A6
:10055000FF9310925E0185B1E0910601F0910701D1
:100560009081892B85B98BB1E0910801F091090147
:100570009081892B8BB9E0910A01F0910B01808168
:1005800090E090938B0080938A00309937C084EF7D
:1005900091E028EC30E0F9013197F1F70197D9F7B4
:1005A00084EF91E028EC30E0F9013197F1F7019701
:1005B000D9F7309923C084EF91E028EC30E0F901BD
:1005C0003197F1F70197D9F784EF91E028EC30E00B
:1005D000F9013197F1F70197D9F706C01092300170
:1005E00081E0809336010AC0809130018F5F809353
:1005F000300180913001863088F7F2CFFF91EF9182
:100600009F918F913F912F910F900FBE0F901F9050
:1006100018951F920F920FB60F9211248F939F93EC
:10062000AF93BF93EF93FF9380915E018F5F8093B1
:100630005E0195B180915E01E0910601F0910701A4
:10064000E80FF11D80818095892385B99BB1809148
:100650005E01E0910801F0910901E80FF11D808130
:10066000809589238BB9A0910A01B0910B018091EB
:100670005E01FD01E80FF11D8081882359F0809112
:100680005E01A80FB11D8C9190E090938B00809338
:100690008A0003C081E080936C01FF91EF91BF91CC
:1006A000AF919F918F910F900FBE0F901F90189553
:1006B0002F923F924F925F926F927F928F929F9272
:1006C000AF92BF92CF92DF92EF92FF920F931F9360
:1006D000DF93CF93CDB7DEB7AF970FB6F894DEBFF9
:1006E0000FBECDBF389839983A9888B1876088B9DD
:1006F0008FE384B98CEF8AB980E090E0FC01E85C7C
:10070000FE4F808301968C309105C1F78FEF90E00A
:10071000909389008093880086E080936F008CE03E
:1007200080938100B4DD78941A8219821E821D8222
:100730001C821B821FA61EA61DA61CA622E330E05B
:100740003BA72AA77AE0272E312C80E197E299A7D0
:1007500088A721E030E03FA32EA331E03DA38FE343
:1007600090E09CA38BA31AA219A22BE930E038A336
:100770002F8F1E8E1D8E1C8E1B8E1A8E198E6FEF64
:10078000462E512C08C07AA269A29E8E8D8EBC8EF8
:10079000AB8EDA8EC98E80913001823009F470C13F
:1007A000833028F4882361F08130A9F788C0843031
:1007B00009F44EC3843008F489C2853061F770C4EF
:1007C000F89480918601282F2370209386017894D5
:1007D00085958595992787FD9095880F991F280EF7
:1007E000391E39EC2316310420F048EC242E312C2C
:1007F00007C085E02816310418F435E0232E312C8B
:100800009EA5992339F42CA53DA52F5F3F4F3DA709
:100810002CA705C08CA59DA501979DA78CA72CA5ED
:100820003DA52F3F310591F08CF080E090E0E0EDA8
:10083000F7E03197F1F70196883C9105C1F731E077
:100840003EA78FEF90E09DA78CA711C02CA53DA5DA
:1008500037FF0DC080E090E0E0EDF7E03197F1F771
:100860000196883C9105C1F71EA61DA61CA68CA565
:10087000809580937A0180937B0180937C013CA5D5
:1008800030937D0130937E0130937F01809380010E
:10089000809381018093820130938301309384019E
:1008A0003093850153DD80E090E005C0E0EDF7E096
:1008B0003197F1F7019682159305C0F36CCF8091C3
:1008C0003601813041F41C821B821E821D821A82F5
:1008D000198210923601F89480918601282F237096
:1008E00020938601789485958595992787FD909525
:1008F000880F991F280E391E29EC2216310420F08A
:1009000008EC202E312C07C035E02316310418F4F2
:1009100015E0212E312C80E090E005C0E0EDF7E0FD
:100920003197F1F7019682159305C0F38FA58823BF
:10093000B1F489819A8101969A8389838B819C8104
:1009400001979C838B8380E090E005C0E0EDF7E0A9
:100950003197F1F7019682159305C0F331C09FA539
:100960009130B1F489819A8101979A8389838D812D
:100970009E8101969E838D8380E090E005C0E0ED2E
:10098000F7E03197F1F7019682159305C0F318C08F
:100990002FA52230A9F48B819C8101969C838B83A7
:1009A0008D819E8101979E838D8380E090E005C0BC
:1009B000E0EDF7E03197F1F7019682159305C0F36A
:1009C00089819A818F3F910581F41C821B8280E08E
:1009D00090E0E0EDF7E03197F1F701962AA53BA50D
:1009E00082179307B0F331E03FA78D819E818F3F3F
:1009F000910581F41A82198280E090E0E0EDF7E041
:100A00003197F1F701962AA53BA582179307B0F31A
:100A100032E03FA78B819C818F3F910579F41E8244
:100A20001D8280E090E0E0EDF7E03197F1F701966C
:100A30002AA53BA582179307B0F31FA6298120930F
:100A40007A019D8190937B018B8180937C01522F51
:100A5000509550937D01492F409540937E01382F4A
:100A6000309530937F012093800190938101809392
:100A700082015093830140938401309385010EC31A
:100A800026D46CEF72E0C6D33C0121D46CEF72E047
:100A9000C1D34C011CD46CEF72E0BCD35C0117D401
:100AA0006CEF72E0B7D36C01BFC089A19AA1861523
:100AB000970524F401969AA389A309C029A13AA114
:100AC0006216730624F4215030403AA329A38D8D79
:100AD0009E8D8815990524F401969E8F8D8F09C0EF
:100AE0002D8D3E8D8216930624F4215030403E8F8A
:100AF0002D8F8B8D9C8D8A159B0524F401969C8FE0
:100B00008B8F09C02B8D3C8DA216B30624F4215087
:100B100030403C8F2B8F898D9A8D8C159D0524F448
:100B200001969A8F898F09C0298D3A8DC216D306F6
:100B300024F4215030403A8F298F80E090E0E0ED9E
:100B4000F7E03197F1F701968A309105C1F789A155
:100B50009AA16FE770E04F8D58A19E012F5F3F4F24
:100B60008E010B5F1F4FB3E0EB2EF12CEC0EFD1E40
:100B7000C7DA8D8D9E8D6FE770E04F8D58A19E0175
:100B8000295F3F4F8E01055F1F4FA9E0EA2EF12C30
:100B9000EC0EFD1EB5DA8B8D9C8D6FE770E04F8DEE
:100BA00058A19E01235F3F4F8E010F5E1F4FFFE054
:100BB000EF2EF12CEC0EFD1EA3DA898D9A8D6FE7D6
:100BC00070E04F8D58A19E012D5E3F4F8E01095E52
:100BD0001F4FE5E1EE2EF12CEC0EFD1E91DA89811E
:100BE00080937A018D8180937B018B8180937C013E
:100BF0008F8180937D018B8580937E018985809391
:100C00007F018D85809380018989809381018F8503
:100C1000809382018B89809383018F8980938401E3
:100C20008D898093850192DB89A19AA1861597050C
:100C300079F42D8D3E8D2815390551F48B8D9C8DC1
:100C40008A159B0529F4298D3A8D2C153D0529F02F
:100C500080913601813009F028CFF8948091860187
:100C6000282F2170209386017894859524E68202AE
:100C7000C001112428A539A5280F391F39A728A795
:100C80002153354728F020E335E739A728A709C0C5
:100C900088A599A5845F914020F484EF91E099A7FD
:100CA00088A780913601882371F480E090E005C028
:100CB000E0EDF7E03197F1F7019628A539A5821705
:100CC0009307B0F360CD109236015DCD809136016F
:100CD000813021F4109236011FA21EA28EA19FA185
:100CE0006CEF72E083D26FE770E04F8D58A19E01E8
:100CF0002F5F3F4F8E010B5F1F4FB3E0EB2EF12CA8
:100D0000EC0EFD1EFDD98EA19FA181549F4F6CEF6B
:100D100072E06CD26FE770E04F8D58A19E01295FA1
:100D20003F4F8E01055F1F4FA9E0EA2EF12CEC0E1C
:100D3000FD1EE6D98EA19FA182589E4F6CEF72E0F6
:100D400055D26FE770E04F8D58A19E01235F3F4F52
:100D50008E010F5E1F4FFFE0EF2EF12CEC0EFD1EFB
:100D6000CFD98EA19FA1835C9D4F6CEF72E03ED2E4
:100D70006FE770E04F8D58A19E012D5E3F4F8E01B1
:100D8000095E1F4FE5E1EE2EF12CEC0EFD1EB8D9E9
:100D9000898180937A018D8180937B018B818093FF
:100DA0007C018F8180937D018B8580937E01898575
:100DB00080937F018D858093800189898093810153
:100DC0008F85809382018B89809383018F898093A3
:100DD00084018D8980938501B9DAF8948091860128
:100DE000282F2370209386017894859585959927DF
:100DF00087FD90952AA53BA5280F391F3BA72AA759
:100E0000293C310518F088EC90E006C02AA53BA5E6
:100E1000232B21F481E090E09BA78AA780E090E05B
:100E2000E0EDF7E03197F1F701962AA53BA582178F
:100E30009307B0F38EA19FA101969FA38EA38D5F10
:100E4000924008F4A8CC81E090E09FA38EA3A3CCAD
:100E50002DA1822F992787FD9095A92FB92FFC01ED
:100E60003197EA30F10508F0DEC0E65EFF4F0994E5
:100E70005A82498258864F825E864D865C8A4B8AAA
:100E80001E821D821C861B861A8A198A51C01A82EC
:100E9000198218861F821E861D861C8A1B8A5E8206
:100EA0004D825C864B865A8A498A588E4F8A1C82AC
:100EB0001B821A861986188A1F86B3C01A82198265
:100EC00018861F821E861D861C8A1B8A1E821D8212
:100ED0001C861B861A8A198A188E1F8A5C824B828E
:100EE0005A864986588A4F8666C05A8249825886F1
:100EF0004F825E864D865C8A4B8A84EF90E09E83AB
:100F00008D839C878B879A8B898B988F8F8BCFCF84
:100F10005A82498258864F825E864D865C8A4B8A09
:100F200024EF30E03E832D831C861B863A8B298B71
:100F3000188E1F8ABCCF1A82198218861F821E86BD
:100F40001D861C8A1B8A5E824D825C864B865A8A6D
:100F5000498A588E4F8A88EC90E09C838B839A87CD
:100F60008987988B8F879E8B8D8B5DC01A821982A3
:100F700018861F821E861D861C8A1B8A5E824D82F1
:100F80001C861B865A8A498A0EC05A824982588614
:100F90004F825E864D865C8A4B8A1E821D821C862D
:100FA0001B861A8A198A188E1F8A1C821B825A86EF
:100FB0004986188A1F865E8A4D8A35C01A82198230
:100FC00018861F821E861D861C8A1B8A5E824D82A1
:100FD0005C864B865A8A498A588E4F8A1C821B82AD
:100FE00020E830E03A872987188A1F863E8B2D8BB0
:100FF0001AC080E890E09A83898398878F839E87C0
:101000008D879C8B8B8B1E821D825C864B861A8AF9
:10101000198A588E4F8A5C824B821A861986588AA2
:101020004F861E8A1D8AF89480918601982F9370AE
:10103000909386017894859585959DA1980F9DA3A1
:101040009B301CF02AE02DA305C03DA1131614F01F
:1010500081E08DA3898180937A018D8180937B01CA
:101060008B8180937C018F8180937D018B85809320
:101070007E01898580937F018D8580938001898998
:10108000809381018F85809382018B898093830176
:101090008F89809384018D898093850157D97BCB7B
:1010A00080E090E06FE770E04F8D58A19E012F5FC8
:1010B0003F4F8E010B5F1F4FB3E0EB2EF12CEC0E78
:1010C000FD1E1ED88FEF90E06FE770E04F8D58A1A6
:1010D0009E01295F3F4F8E01055F1F4FA9E0EA2E59
:1010E000F12CEC0EFD1E0CD88DEF91E06FE770E057
:1010F0004F8D58A19E01235F3F4F8E010F5E1F4F02
:10110000FFE0EF2EF12CEC0EFD1EFAD78EE791E0FA
:101110006FE770E04F8D58A19E012D5E3F4F8E010D
:10112000095E1F4FE5E1EE2EF12CEC0EFD1EE8D717
:10113000898180937A018D8180937B018B8180935B
:101140007C018F8180937D018B8580937E018985D1
:1011500080937F018D8580938001898980938101AF
:101160008F85809382018B89809383018F898093FF
:1011700084018D8980938501E9D8F8948091860156
:10118000282F21702093860178948595992787FDD3
:1011900090952BA13CA1280F391F3CA32BA32034F1
:1011A000310518F08FE390E006C02BA13CA1232B62
:1011B00021F481E090E09CA38BA3EBA1FCA1EE0FB6
:1011C000FF1FE85BFF4F2591349138A32F8F1AA2A0
:1011D00019A28FEF90E09E8F8D8F2DEF31E03C8F25
:1011E0002B8F8EE791E09A8F898FD5CAAA1BBB1BE4
:1011F00051E107C0AA1FBB1FA617B70710F0A61B17
:10120000B70B881F991F5A95A9F780959095BC0137
:10121000CD01089597FB092E07260AD077FD04D04B
:10122000E5DF06D000201AF4709561957F4F089590
:10123000F6F7909581959F4F0895A0E0B0E0E2E227
:10124000F9E096C0EC01A880B980CA80DB80A114C7
:10125000B104C104D10441F484E2A82E89EDB82E72
:101260008BE5C82E87E0D82EC601B5012DE133EFFE
:1012700041E050E05AD027EA31E440E050E036D077
:101280007B018C01C601B5012DE133EF41E050E057
:101290004CD0CA01B9012CEE34EF4FEF5FEF26D0EE
:1012A0006E0D7F1D801F911F97FF04C0615070401D
:1012B00080409048688379838A839B839B013F7732
:1012C000C901CDB7DEB7EAE06FC0B7DF089581E3AB
:1012D00091E0B3DF0895A0E0B0E0809331019093F6
:1012E0003201A0933301B09334010895629FD0017D
:1012F000739FF001829FE00DF11D649FE00DF11DD1
:10130000929FF00D839FF00D749FF00D659FF00D7F
:101310009927729FB00DE11DF91F639FB00DE11D6C
:10132000F91FBD01CF011124089597FB092E052651
:101330000ED057FD04D04BD00AD0001C38F4509585
:101340004095309521953F4F4F4F5F4F0895F6F7E9
:1013500090958095709561957F4F8F4F9F4F089521
:101360002F923F924F925F926F927F928F929F92B5
:10137000AF92BF92CF92DF92EF92FF920F931F93A3
:10138000CF93DF93CDB7DEB7CA1BDB0B0FB6F89454
:10139000DEBF0FBECDBF09942A88398848885F8494
:1013A0006E847D848C849B84AA84B984C884DF8005
:1013B000EE80FD800C811B81AA81B981CE0FD11DE9
:1013C0000FB6F894DEBF0FBECDBFED010895A1E2C8
:1013D0001A2EAA1BBB1BFD010DC0AA1FBB1FEE1FAF
:1013E000FF1FA217B307E407F50720F0A21BB30BFA
:1013F000E40BF50B661F771F881F991F1A9469F776
:1014000060957095809590959B01AC01BD01CF01D1
:061410000895F894FFCFDF
:101416006D019401870151015F0144010403020734
:101426000605050403020100020102010201020190
:10143600020102010001000100010001000100019A
:061446000201000000009D
:00000001FF
